{
  "_format": "hh3-artifact-1",
  "contractName": "Poster",
  "sourceName": "contracts/Poster.sol",
  "abi": [
    {
      "inputs": [
        {
          "internalType": "address",
          "name": "_tokenAddress",
          "type": "address"
        },
        {
          "internalType": "uint256",
          "name": "_threshold",
          "type": "uint256"
        }
      ],
      "stateMutability": "nonpayable",
      "type": "constructor"
    },
    {
      "anonymous": false,
      "inputs": [
        {
          "indexed": true,
          "internalType": "address",
          "name": "user",
          "type": "address"
        },
        {
          "indexed": false,
          "internalType": "string",
          "name": "content",
          "type": "string"
        },
        {
          "indexed": true,
          "internalType": "bytes32",
          "name": "tag",
          "type": "bytes32"
        }
      ],
      "name": "NewPost",
      "type": "event"
    },
    {
      "anonymous": false,
      "inputs": [
        {
          "indexed": true,
          "internalType": "address",
          "name": "previousOwner",
          "type": "address"
        },
        {
          "indexed": true,
          "internalType": "address",
          "name": "newOwner",
          "type": "address"
        }
      ],
      "name": "OwnershipTransferred",
      "type": "event"
    },
    {
      "inputs": [],
      "name": "owner",
      "outputs": [
        {
          "internalType": "address",
          "name": "",
          "type": "address"
        }
      ],
      "stateMutability": "view",
      "type": "function"
    },
    {
      "inputs": [
        {
          "internalType": "string",
          "name": "content",
          "type": "string"
        },
        {
          "internalType": "string",
          "name": "tag",
          "type": "string"
        }
      ],
      "name": "post",
      "outputs": [],
      "stateMutability": "nonpayable",
      "type": "function"
    },
    {
      "inputs": [
        {
          "internalType": "uint256",
          "name": "newThreshold",
          "type": "uint256"
        }
      ],
      "name": "setThreshold",
      "outputs": [],
      "stateMutability": "nonpayable",
      "type": "function"
    },
    {
      "inputs": [
        {
          "internalType": "address",
          "name": "newTokenAddress",
          "type": "address"
        }
      ],
      "name": "setTokenAddress",
      "outputs": [],
      "stateMutability": "nonpayable",
      "type": "function"
    },
    {
      "inputs": [],
      "name": "threshold",
      "outputs": [
        {
          "internalType": "uint256",
          "name": "",
          "type": "uint256"
        }
      ],
      "stateMutability": "view",
      "type": "function"
    },
    {
      "inputs": [],
      "name": "tokenAddress",
      "outputs": [
        {
          "internalType": "address",
          "name": "",
          "type": "address"
        }
      ],
      "stateMutability": "view",
      "type": "function"
    },
    {
      "inputs": [
        {
          "internalType": "address",
          "name": "newOwner",
          "type": "address"
        }
      ],
      "name": "transferOwnership",
      "outputs": [],
      "stateMutability": "nonpayable",
      "type": "function"
    }
  ],
  "bytecode": "0x6080604052348015600e575f5ffd5b50604051610601380380610601833981016040819052602b916088565b5f80546001600160a01b03199081166001600160a01b038516178255600183905560028054339216821790556040519091907f8be0079c531659141344cd1fd0a4f28419497f9722a3daafe3b4186f6b6457e0908290a3505060bd565b5f5f604083850312156098575f5ffd5b82516001600160a01b038116811460ad575f5ffd5b6020939093015192949293505050565b610537806100ca5f395ff3fe608060405234801561000f575f5ffd5b506004361061007a575f3560e01c80638da5cb5b116100585780638da5cb5b146100c2578063960bfe04146100ed5780639d76ea5814610100578063f2fde38b14610112575f5ffd5b80630ae1b13d1461007e57806326a4e8d21461009357806342cde4e8146100a6575b5f5ffd5b61009161008c3660046103da565b610125565b005b6100916100a1366004610446565b610251565b6100af60015481565b6040519081526020015b60405180910390f35b6002546100d5906001600160a01b031681565b6040516001600160a01b0390911681526020016100b9565b6100916100fb366004610473565b61029c565b5f546100d5906001600160a01b031681565b610091610120366004610446565b6102cb565b5f546001546040516370a0823160e01b81523360048201526001600160a01b039092169182906370a0823190602401602060405180830381865afa15801561016f573d5f5f3e3d5ffd5b505050506040513d601f19601f82011682018060405250810190610193919061048a565b10156101da5760405162461bcd60e51b81526020600482015260116024820152704e6f7420656e6f75676820746f6b656e7360781b60448201526064015b60405180910390fd5b5f83836040516020016101ee9291906104a1565b60405160208183030381529060405280519060200120905080336001600160a01b03167e29117975fec2fee16049ba5fae935ab94fd46833c521cf9258fa9507b08bbd88886040516102419291906104b0565b60405180910390a3505050505050565b6002546001600160a01b0316331461027b5760405162461bcd60e51b81526004016101d1906104de565b5f80546001600160a01b0319166001600160a01b0392909216919091179055565b6002546001600160a01b031633146102c65760405162461bcd60e51b81526004016101d1906104de565b600155565b6002546001600160a01b031633146102f55760405162461bcd60e51b81526004016101d1906104de565b6001600160a01b03811661033a5760405162461bcd60e51b815260206004820152600c60248201526b5a65726f206164647265737360a01b60448201526064016101d1565b6002546040516001600160a01b038084169216907f8be0079c531659141344cd1fd0a4f28419497f9722a3daafe3b4186f6b6457e0905f90a3600280546001600160a01b0319166001600160a01b0392909216919091179055565b5f5f83601f8401126103a5575f5ffd5b50813567ffffffffffffffff8111156103bc575f5ffd5b6020830191508360208285010111156103d3575f5ffd5b9250929050565b5f5f5f5f604085870312156103ed575f5ffd5b843567ffffffffffffffff811115610403575f5ffd5b61040f87828801610395565b909550935050602085013567ffffffffffffffff81111561042e575f5ffd5b61043a87828801610395565b95989497509550505050565b5f60208284031215610456575f5ffd5b81356001600160a01b038116811461046c575f5ffd5b9392505050565b5f60208284031215610483575f5ffd5b5035919050565b5f6020828403121561049a575f5ffd5b5051919050565b818382375f9101908152919050565b60208152816020820152818360408301375f818301604090810191909152601f909201601f19160101919050565b6020808252600990820152682737ba1037bbb732b960b91b60408201526060019056fea264697066735822122094afe12d13e821f71fc10577c97a6937c7d3e04b199934da83a1fbdcbdf7538e64736f6c634300081c0033",
  "linkReferences": {},
  "deployedLinkReferences": {},
  "immutableReferences": {},
  "inputSourceName": "project/contracts/Poster.sol",
  "buildInfoId": "solc-0_8_28-f1fe4fa2b68f8ae8814b0d1799046e27cc214eb3"
}